:1000000000400020D9050000190600001B06000072
:1000100000000000000000000000000000000000E0
:100020000000000000000000000000001D060000AD
:1000300000000000000000001F0600002106000074
:10004000230600002306000023060000230600000C
:100050002306000000000000230600002306000025
:1000600023060000230600002306000023060000EC
:1000700023060000230600002306000023060000DC
:1000800023060000230600002306000023060000CC
:1000900023060000230600002306000023060000BC
:1000A00023060000230600000000000000000000FE
:1000B0000000000000000000000000000000000040
:1000C00008B5054B054803331B1A062B03D9044B0F
:1000D000002B00D0984708BD740800207408002049
:1000E000000000000648074908B5091A8910CB0F1F
:1000F0005918491003D0044B002B00D0984708BD75
:1001000074080020740800200000000010B5074C9F
:100110002378002B09D1FFF7D3FF054B002B02D02A
:10012000044800E000BF0123237010BD74080020C4
:1001300000000000F038000008B5094B002B03D088
:100140000848094900E000BF08480368002B02D1B5
:10015000FFF7C8FF08BD064B002BF9D09847F7E71B
:1001600000000000F038000078080020700800202F
:1001700000000000144B002B00D1124B9D46402282
:1001800092029A1A924600218B460F461148124A53
:10019000121A00F0AFFA0D4B002B00D098470C4B11
:1001A000002B00D098470020002104000D000B48D0
:1001B00000F038FA00F068FA2000290000F030F86A
:1001C00000F038FA000008000040002000000000A5
:1001D0000000000074080020CC0800205506000034
:1001E00080B586B000AFF860B9607A60BB687B61AB
:1001F00000233B610AE07B691B78181C00F0D6F8ED
:100200007B6901337B613B6901333B613A697B6800
:100210009A42F0D37B68181CBD4606B080BDC0462C
:1002200090B585B000AF0423FB6016E0A023DA058B
:100230000121FB6899400B1C191CA323DB00D15042
:10024000A023DA050121FB6899400B1C191CA1238E
:10025000DB00D150FB680133FB60FB680C2BE5DD54
:100260000D23BB6015E0A023DA050121BB6899408E
:100270000B1C191CA323DB00D150A023DB0501219B
:10028000BA6891400A1C111C254A9950BB68013379
:10029000BB60BB680F2BE6DDA023DB05214A0021F4
:1002A0009950A023DA05ED23DB000021D150002373
:1002B0007B6000F03FF8FC1C00F09AF8031C2370F0
:1002C000FB1C1B78612B11D1A023DB05144A4021B4
:1002D0009950A023DA05A123DB0080218901D150A8
:1002E000114B124A181C111C00F0F2F9FB1C1B7870
:1002F000622B0BD1A023DA05A123DB004021D150D2
:10030000A023DB050649802292015A50084B7B60EE
:100310007B68013B7B607B68002BF9D1CBE7C04653
:100320000C05000044070000243700003E670D0064
:100330001027000080B500AFA023DA05EC23DB0016
:100340000121D150A023DB05124A00219950124A05
:10035000124B1349D150104A124B1821D1500E4A5A
:10036000114B1921D1500C49A223DB00012252422A
:10037000CA500949A123DB0001225242CA50064A51
:10038000A023DB000421D150034B01221A60BD469B
:1003900080BDC04664070000002000402405000026
:1003A000005027000C0500001405000080B582B045
:1003B00000AF021CFB1D1A700B4B01229A600A4908
:1003C000FB1D1B78094A8B50C046074A8E235B00F1
:1003D000D358002BF9D0044A8E235B000021D15062
:1003E000BD4602B080BDC046002000401C05000094
:1003F00080B582B000AF0E4B01221A600C4A8423F4
:100400005B00D358002B0DD0094A84235B000021E8
:10041000D150074AA323DB00D258FB1D1A70FB1DE5
:100420001B7800E00023181CBD4602B080BDC0460A
:100430000020004080B500AF00F034F8031E06D065
:10044000124B134A1A60134B802212021A6000F0FA
:1004500069F8031E05D08023DA05C123DB000121E2
:10046000D15000F085F8031E0ED00B4B1B68012BFA
:1004700007D0094B094A1A60C046074B1B68012B7D
:10048000FBD1074BC0221A60BD4680BD0405004069
:10049000DFFF07C0186C004000EC064075930000B9
:1004A00014EC064080B500AF1A4B1B68FF221340C6
:1004B000012B2AD1184B1B680F22134025D1174B53
:1004C0001B68F022134006D1154B1B68F022134025
:1004D00001D101231AE0114B1B68F0221340102BAD
:1004E00006D10F4B1B68F022134001D101230DE010
:1004F0000A4B1B68F0221340302B06D1084B1B68B7
:10050000F022134001D1012300E00023181CBD4656
:1005100080BDC046E00F00F0E40F00F0E80F00F0EF
:10052000EC0F00F080B500AF0D4B1B68FF221340AD
:10053000012B11D10B4B1B680F2213400CD10A4B1E
:100540001B68F0221340402B06D1084B1B68F02299
:10055000134001D1012300E00023181CBD4680BDDB
:10056000E00F00F0E40F00F0E80F00F0EC0F00F0F7
:1005700080B500AF144B1B68FF221340012B1ED126
:10058000124B1B680F22134019D1114B1B68F0222C
:100590001340A02B06D10F4B1B68F022134001D152
:1005A00001230DE00A4B1B68F0221340D02B06D12B
:1005B000084B1B68F022134001D1012300E0002307
:1005C000181CBD4680BDC046E00F00F0E40F00F0EF
:1005D000E80F00F0EC0F00F003210A4802680A431C
:1005E0000260094802680A4302600849084A094B48
:1005F0009B1A03DD043BC858D050FBDCFFF71AFF01
:10060000FFF7B8FD240500405405004024390000E0
:100610000000002074080020FEE7FEE7FEE7FEE78A
:10062000FEE7FEE708B5011C00220020002300F0D1
:10063000A9FF08BD10B50021041C01F019F8044BF6
:100640001868C36B002B00D09847201C03F05CF89F
:100650003837000038B5094B094CE41AA41009D00A
:10066000084AA518AD00ED182B68013C9847043DD9
:10067000002CF9D103F050F838BDC0466C080020BA
:1006800070080020FFFFFF3F70B50D4E0D4D002498
:10069000AD1BAD1005D0A300F35801349847A54217
:1006A000F9D103F033F8084E084D0024AD1BAD100E
:1006B00005D0A300F35801349847A542F9D170BD85
:1006C0006408002064080020640800206C080020F2
:1006D0000FB400B5064983B004AB086804CB816849
:1006E000019300F08BF803B008BC04B01847C04673
:1006F0002804002070B583073FD0541E002A3BD049
:10070000CEB2031C032503E0621E002C34D0141C5F
:1007100001335A1E16702B42F6D1032C24D9FF2523
:100720000D402A0215432A0415430F2C11D9261C0B
:10073000103E3609013636011A1C9B1915605560AA
:100740009560D56010329342F8D10F221440032CEB
:100750000AD9261FB6080136B6001A1C9B1920C2FA
:100760009342FCD103221440002C05D0C9B21C19BD
:1007700019700133A342FBD170BD141C031CCCE7DC
:10078000F0B557464E4645464B6EE0B480460F1CCA
:1007900091469B042ED513689A469368002B27D068
:1007A000524652680025960852461468002E04DC12
:1007B00015E001350434AE420FD0404621683A1CA2
:1007C00001F082F9431CF4D14A4600239360536040
:1007D0001CBC90469946A246F0BD4B469B684A46D3
:1007E000B6009B1B936008229446E244002BD7D1AD
:1007F0000020E9E701F09EFAE6E7C046F0B55F4663
:10080000444656464D46F0B4B5B008900391934621
:100810001C1C0E93002804D0836B0093002B00D186
:100820009FE08021039B89019A8993B20B4209D1F1
:100830000A4303994B6E8A8100930098CE4B034084
:100840004B6693B21A076BD5039A12690092002A7D
:1008500066D01A2213400A2B6ED0049C059D24AB4F
:1008600098461793002346461993189311930B93B8
:100870005B461B78002B01D100F0BAFC252B01D17F
:1008800000F0B6FC5B4601E0252A3ED001331A7821
:10089000002AF9D15A4699469F1A002F11D05B467B
:1008A0003360199B7760FA18189B199200930133F3
:1008B00018930836072B2CDC0B9B9C46BC446346E4
:1008C0000B934B461B78002B00D16EE34B465F1C0D
:1008D000002314AAD37101225242069200220A92E6
:1008E000009210324B469246303294464032914646
:1008F00000213A1C5B78571C1A1C203A582A00D950
:100900006CE29E489200825897465A4699469F1A32
:10091000C3E7002A01D000F088FC18924646CBE7D6
:100920000898039900F0C6FD002811D11A22039BF4
:100930009B8913400A2B90D1039B0E229B5E002BB8
:100940008BDB089803995A46231C00F079FD01E0DF
:100950000120404235B03CBC90469946A246AB4689
:10096000F0BD01F04BF85CE73A1C042300981843F3
:1009700000903B78BFE74A46009B134300933B78C7
:100980003A1CB8E70022101C303A93469B445A4662
:100990008B46011C8B005B185B00013799187B1E8E
:1009A0001B781A1C303A092AF4D90A915946A3E750
:1009B00014ABD9711023009ABB461A430092009BD6
:1009C0009B0600D4F6E107230E9A07329A430133BF
:1009D0009C46944463460E93536814681D1C002B78
:1009E00001DA00F067FC211C012214ABDF79069BC1
:1009F00029430993069B002B03DB8023009898432F
:100A00000090002900D09BE2069B002B00D1ACE3B4
:100A1000012A00D1BBE2022A00D1B5E307234246F6
:100A20009946B4466E07E0084B46E90806430D1C9C
:100A3000311C2340013A30331370341C2943F1D167
:100A40001092009A6646D20700D4D4E3302B00D12E
:100A5000D1E3109B013B1A1C1093302313704346C3
:100A60009B1A0993099B069A0493934200DA049215
:100A70007B1E9F41049B9C46BC4463460493022317
:100A8000009A1A400C9202D0049B023304938423F0
:100A9000009A1A400F9200D0B5E10A9B049A9F1A5F
:100AA000002F00DCAFE1199B102F01DC00F082FC6D
:100AB000334A311C9146102218989246129413958D
:100AC0004E4605E0841C101C0831103F102F11DD2C
:100AD000524610334A60421C0E6019931892072A3E
:100AE000F0DD002B00D081E1103F002001244146C1
:100AF000102FEDDCB1460E1C211C129C139D4A46A2
:100B0000FB183260776019931891072900DD55E3CF
:100B10004A1C083694467AE1BB460E991AAA0B681D
:100B200004310E911370002314A9CB710133049387
:100B30000993109200230693A1E71023009ABB4665
:100B40001A430092009B9B0600D4C7E007220E9B2D
:100B500007339343013294461C685D689C446246A7
:100B6000211C0E9200222943002314A8C371069B66
:100B7000002709933EE7C046FFDFFFFF3C37000038
:100B8000E03800001023009ABB461A430092009BF5
:100B90009B0679D507220E9B073393430132944677
:100BA0001C685D689C446246211C0E922943012208
:100BB000DAE73B786C2B00D1D9E35046009A024328
:100BC00000923A1C97E614AAD171D44ABB461192FE
:100BD000009A92066FD507210E9A07328A43013197
:100BE0008C4614685568944461460E91009AD20769
:100BF00000D410E3211C02222943B5D0302716A8C7
:100C00004370009B077013430093ADE70E9B1A1DC2
:100C10001B6893460A93002B00DAB0E30E923B78F0
:100C20003A1C68E63B783A1C2B2164E62022009BA4
:100C3000134300933B783A1C5DE60E9B14A91A1DE2
:100C40001B68914610931A1C0023BB46CB71002AE7
:100C500000D1B6E3069B002B00DA98E3109F002139
:100C6000381C1A1C01F040FD002800D1C6E3C31B4C
:100C7000099314ABDF794B460E9300230693F1E6FC
:100C8000009BBB469B0685D4009BDB0603D4009BE0
:100C90005B0600D560E30E9B1C68043300250E93B1
:100CA0000122211C60E714AAD1719D4ABB46119212
:100CB000009A92068FD4009AD20600D5AFE2009A2D
:100CC000520600D4ABE20E9A0025148804320E922C
:100CD0008CE7009BBB469B0600D537E7009BDB06F5
:100CE00003D4009B5B0600D539E30E9B1C680433DC
:100CF00000250E930022211C36E70E9ABB46131CDA
:100D000004330E9302231468009A00251A430092BC
:100D1000302216AB1A7048325A70814B763A1193D2
:100D2000211C21E714ABD971009BBB469B0600D464
:100D3000DDE20E990B9A0B681A60D2175A600B1CF1
:100D400004330E9394E53A1C3B78002900D0D2E599
:100D50002031D0E53B787A1C2A2B00D158E3302093
:100D6000404283469B445846171C0022092811D84C
:100D70008B46111C021C8B005B185B000137D118DD
:100D80007B1E1B781A1C303A092AF4D90A1E5946D0
:100D900000DAE7E20692AFE56246009B1343009358
:100DA0003B783A1CA7E514ABD971009BBB469B0668
:100DB00000D508E6009BDB0600D4B1E20E9A13686A
:100DC00004931C1C0432DB171D1C0E9207E6012342
:100DD00000983A1C184300903B788CE514AABB4657
:100DE000D171002B00D1E0E01AAA9BE60898039984
:100DF00017AAFFF7C5FC002800D0DFE01898199B60
:100E0000441C414661E61899199B4A1C944614AA51
:100E1000D279002A10D014AA0732326001227260FF
:100E20006246013319931892072A00DD85E10122F9
:100E3000914661460836CC440C9A002A0FD016AA77
:100E40003260022272606246023319931892072AB6
:100E500000DD82E10122914661460836CC440F9ABA
:100E6000802A00D120E1069A0998171A002F34DD54
:100E70002C4A9146102F22DD1022301C92460694F7
:100E800007954E4605E08C1C111C0830103F102FB2
:100E900010DD5246103342604A1C066019931892C6
:100EA000072AF0DD002B3FD1103F012400214046EE
:100EB000102FEEDCB146061CA446069C079D4A4650
:100EC00032606246DB19776019931892072A00DDB9
:100ED0007BE0012291460836CC44109A3260099A90
:100EE00098186346726019901893072B79DD0028D3
:100EF00000D085E1009B18905B0700D570E1049B52
:100F00000A9A934200DA25E20B9A94469C4463467F
:100F10000B93002346461893AAE4C046B03800005D
:100F2000C4380000A03800000898039917AAFFF7FA
:100F300027FC002842D11899199B4C1C4046A5E774
:100F4000012A00D067E5002D01D1092C1FD9331CDF
:100F500046469946201C291C0A22002302F050F91B
:100F6000013E30323270201C291C00230A2202F07C
:100F700047F9031C041C0D1C0B43EBD14B46B14637
:100F800042461E1C4B461093D31A09936AE5231C54
:100F900027221AA930338B54183214AB9C4643468F
:100FA00062449B1A099310925CE5199B0093002BF5
:100FB00004D00898039917AAFFF7E2FB039B9B89CB
:100FC0005B0600D5C4E40B98C4E4002B00D060E1BC
:100FD00043460998109A58601A60012346461990B2
:100FE0001893331C0833009A52073BD50A9A049988
:100FF000571A002F36DD102F00DCF2E1D34A189982
:10100000914610260094019505E08C1C111C0833B4
:10101000103F102F10DDCD4A10301A604A1C5E6060
:1010200019901892072AF0DD002831D1103F0124D1
:1010300000214346102FEEDCA446009C019D4A4649
:1010400084C36346C01919901893072B0ADD002842
:1010500000D154E70898039917AAFFF791FB0028DD
:10106000ACD11998049B0A9A934200DA131C0B9A8C
:1010700094469C4463460B93002800D149E70898A6
:10108000039917AAFFF77CFB002800D141E795E7F9
:101090000898039917AAFFF773FB00288ED11899B7
:1010A00019984C1C4346B3E70A9A0498171A002F64
:1010B00000DCD8E6102F00DC9CE1A54A301C9146EC
:1010C00010220C940D9592464E4605E08C1C111C86
:1010D0000830103F102F10DD5246103342604A1C7A
:1010E000066019931892072AF0DD002B18D1103FE3
:1010F000012400214046102FEEDCB146061C201CC6
:101100000C9C0D9D4A46DB1932607760199318904C
:10111000072800DDB5E0421C08369446011CA2E613
:101120000898039917AAFFF72BFB002800D045E782
:101130001899199B4C1C4046CBE7002B00D084E04B
:101140000C9A002A7CD0424616AB136002235360EF
:10115000013B9C46464601337CE6002B00D082E0F2
:10116000012200219446464679E643461093002A20
:1011700000D077E4009BDB0700D473E43021272301
:101180001AAAD1543F2208E742460F20B446B94676
:10119000119F031C2340FB5C2E072109013A0E43DB
:1011A00013702B091D1C331C341C2B43F1D14346F7
:1011B0009B1A66464F461092099353E4002B00D0C9
:1011C000B6E014AAD279002A00D183E0434614AADB
:1011D00007321A60012342469C465360464626E683
:1011E0000A9A04994346571A002F00DD03E786E662
:1011F000D946FFF766FB4346109A9B1A099331E4E0
:101200000898039917AAFFF7BBFA002800D0D5E683
:1012100019984346E7E6211C02222943A4E40E9ACA
:101220000025146804320E92E0E40898039917AA86
:10123000FFF7A6FA002800D0C0E64646FFF73CFBC1
:10124000013200219446464609E60898039917AAF8
:10125000FFF796FA002800D0B0E61899199B4A1CAF
:1012600094464646E8E50898039917AAFFF788FAD6
:10127000002800D0A2E61899199B4A1C94464646BD
:10128000EDE5002B00D087E0012200219446464680
:10129000E9E50898039917AAFFF772FA002800D029
:1012A0008CE601218946189A199B06924A44944675
:1012B000464612E6221C2B1C002554429D412D233C
:1012C000211C14AAD371069B2D27099301222943BF
:1012D000FFF790FB013294460C9A00214646002A03
:1012E00000D1C0E516AB336002237360B2E5009B0A
:1012F000DB060CD4009B5B0609D569460E9B898DE5
:101300001A680433009211800E93FFF7B1FA0E9A17
:101310000B9913681960131C04330E93FFF7A8FA96
:10132000009B0E9A5B0600D449E50021535E48E518
:101330000898039917AAFFF723FA002800D03DE682
:101340001899199B4A1C9446464660E5E03800000F
:10135000A0380000131CD7E50E9B1C889DE40E9B53
:101360001C88C4E4012252420692FFF7C5FA2020ED
:10137000009B7A1C034300937B78FFF7BCFA0A9B1F
:101380003A1C5B420A935B460E93FFF7EEFA109805
:1013900001F0C0FC09906CE40898039917AAFFF7C4
:1013A000EFF9002800D009E61899199B4A1C9446C9
:1013B000464658E5189A1292511C1E4A9146FFF76C
:1013C0009EFB069F062F00D90627FB433A1CDB171E
:1013D0001A404B460E93184B099704921093FFF74F
:1013E000A9FB01218946189A00924A449446114A61
:1013F000914624E6114A6046914683E614ABDF79B4
:101400004B460E93069B099300230693FFF72AFB96
:101410000E9B181D1B680693002B03DB7B780E9038
:10142000FFF769FA0E90012040427B780690FFF7A3
:1014300062FAC046E0380000D8380000A03800004A
:1014400070B5061C02201A4CA5440C1C89898143E6
:1014500068468181616E1991E189C181E169301C21
:101460000791616A09911AA9009104918021C9002C
:1014700002910591002106916946FFF7BFF9051E0B
:1014800005DB301C694600F023FA00280CD16B46BE
:101490009B895B0603D54023A2891343A381281CA3
:1014A0008D23DB009D4470BD01256D42EFE7C046F2
:1014B00098FBFFFF38B5324B051C18680C1C002840
:1014C00002D0836B002B3BD0A08983B21A070DD5C5
:1014D0002169002916D0DA0722D50023A3606369A9
:1014E00000205B42A361002922D038BDDA063ED538
:1014F0005B0728D421690822031C1343A3819BB2F4
:101500000029E8D1A022802092001A408000824267
:10151000E1D0211C281C00F0CBFDA3892169DAE76A
:1015200000229B0700D46269A26000200029DCD160
:10153000A3891A06D9D540221343A3810138D4E7E1
:1015400000F05CFAC0E7216B002909D0231C40336E
:10155000994203D0281C00F015FBA08900232363C7
:10156000242398430023216963602160C3E7092392
:101570002B60402303430120A3814042B5E7C046CE
:1015800028040020F8B544465F4656464D469B4623
:101590002F4BF0B41C68A4235B00051CE0580E1C04
:1015A000904600284BD043681F2B0DDC5C1C002D9F
:1015B00021D102339B0044601E5000203CBC904669
:1015C0009946A246AB46F8BD224B002B3CD0C82022
:1015D000400000E000BF002836D0A42200235200C3
:1015E000A15843600160A0504032835004328350C0
:1015F0000124002DDDD09A00914681444246882185
:101600004F467A50C4225200904680444246873961
:10161000994012688A460A439446424661461160E0
:10162000842249465F4652008F50022DC1D1021CD0
:1016300055468D32FF3211680D431560B9E7201C05
:101640004D30FF30E050AEE701204042B6E7C046E3
:10165000383700000000000008B5034B002B02D013
:101660000248FEF7DFFF08BD00000000550600003D
:10167000F0B556465F464D464446F0B40E1C3C4B12
:1016800087B01B68019003934933FF330493A4226E
:10169000039B52009F58002F4CD0049B9846002378
:1016A0009B46C4235B009C46BC4463460293C6230E
:1016B0005B009A467C68BA44A5007D19013C08D5B8
:1016C00026E06B1DFF331B68B34204D0043D013C90
:1016D0001ED3002EF5D17B686A68013BA3423AD045
:1016E0005B466B60002AF1D07B6802999946012322
:1016F000A34009680591194223D190477B684B4567
:10170000C5D143461B68BB42C1D1043D013CE0D278
:10171000184B002B0ED07B68002B23D13B68002B8D
:1017200024D04246381C136000E000BF43461F68C7
:10173000002FB6D107B03CBC90469946A246AB46B6
:10174000F0BD51460968194207D12B1C8433196832
:1017500001989047D2E77C60C4E72B1C843318685B
:101760009047CBE73B68B8461F1CE1E70023FAE748
:101770003837000000000000F0B5474680B48B8980
:1017800080469AB20C1C11073DD4802212011343EB
:101790006268A381002A62DDA56A002D2FD042462F
:1017A0004146166800229BB20A60DA045BD5226DBE
:1017B0005B0706D56368D21A236B002B01D0E36B5D
:1017C000D21A00234046E169A847431C56D0A2899B
:1017D0003E4B1340002262602269A3812260DB0439
:1017E0003BD44346216B1E60002908D0231C4033A4
:1017F000994202D0404600F0C5F90023236300203F
:1018000004BC9046F0BD2669002EF8D023682660FF
:101810009D1B0023920700D16369A360002D04DCA7
:10182000EDE736182D1A002DE9DD4046E169321C3E
:101830002B1C676AB8470028F3DC40230120A289EB
:1018400040421343A381DBE7A189204A63602369F7
:101850000A40A2812360D304C3D52065C1E7E26BAF
:10186000002A99DCCBE700224046E1690123A84722
:10187000021C431C18D0A389A56A99E743461B683C
:10188000002BE1D01D2B06D0162B04D04023A289BB
:101890001343A381B4E7A2890C4B1340A381002317
:1018A0006360236923609CE743461B68002BE2D0FA
:1018B0001D2B06D0162B04D04023A1890B43A381F6
:1018C0009EE7434600201E609AE7C046FFF7FFFFF1
:1018D00038B5041C0D1C002802D0836B002B09D0E6
:1018E0000C22AB5E0020002B03D0201C291CFFF72C
:1018F00043FF38BD00F082F8F2E7C04608B5024960
:1019000000F0A4FB08BDC046F52E0000F8B55F4608
:1019100056464D464446344BF0B4C363B8230024C6
:1019200003229B00C45004334568C2500833C218D8
:10193000043BC250061C0423281C2C606C60AC6065
:10194000AB816C66EC812C616C61AC61002108227A
:101950005C30FEF7CFFE254B254F9A462B62254B78
:10196000EF6299466B62244BED61AB62B5689846B5
:101970000923281CAB81083B2C606C60AC606C6652
:10198000EB812C616C61AC61002108225C309B46CC
:10199000FEF7B0FE53462B624B466B624346EF6246
:1019A000AB62ED61F5681223281CAB81103BEB8123
:1019B0002C606C60AC606C662C616C61AC61002169
:1019C00008225C30FEF796FE53462B624B466B6254
:1019D0004346AB625B46EF62ED61B3633CBC90464D
:1019E0009946A246AB46F8BDFD1800007D2C0000CC
:1019F000092D0000A52C0000DD2C000008B5836B2C
:101A0000002B01D1FFF782FF08BDC0467047C046DA
:101A10007047C046F0B54F464646C0B485B08146D3
:101A20008846141C00F03EFB01283FD0231C03AF66
:101A30004846391C42465C3301F0FCF9061C431C45
:101A40001ED000283ED03978002508E023681970A0
:101A50002368013323600135AE4233D9795DA36831
:101A6000013BA360002BF1DAA269934211DB2368EA
:101A7000197023681A780A2AEBD148460A2109E02E
:101A80004023A2891343A38105B00CBC904699461C
:101A9000F0BD4846221C01F071F901304342434138
:101AA000DBB2002BD7D001204042EDE74346013B9B
:101AB000FE2BBBD86A464346D371D17903AF397048
:101AC0000126C1E74046DFE710B580249389A401D1
:101AD000234204D123439381536E1C435466FFF782
:101AE00099FF10BDF8B50C1C061C00F0C9FE204F74
:101AF000BB685D6803239D431E4B2C1B9C466444BE
:101B0000240B1D4B013C24039C4207DD301C0021AB
:101B100001F0A2F8BB685B19984204D0301C00F0B9
:101B2000B1FE0020F8BD6142301C01F095F8431C65
:101B30000DD001232D1BBA681D43104B55601A6848
:101B4000301C141B1C6000F09DFE0120EAE7301CD5
:101B5000002101F081F8BB68C21A0F2ADEDD0849B6
:101B60000968401A0549086001210A435A60D5E70F
:101B700050040020EF0F0000FF0F00009C08002021
:101B80005C080020F0B5474680B4002949D00C1C01
:101B9000051C00F075FE211C08394F6801233C1C10
:101BA0009C430A195068984602339843031C5B48CB
:101BB0008668964252D0464653603E420BD1082674
:101BC000B4460F688444C91BE4198F6867455ED02A
:101BD000CE68FE60B7600127D61876683E4208D10D
:101BE000E4184F4E9368B34200D173E0D268DA60D4
:101BF00093604C4B27434F600C519C4214D8E4082F
:101C0000FF3BA210FF3B93404268E4001343436054
:101C100000198368C8608B608160D960281C00F05F
:101C200031FE04BC9046F0BD630A042B43D8A309DF
:101C300038331A1C5E00B6008619B3680327B34216
:101C40003FD05A68BA43A24202D99B689E42F8D15B
:101C5000DA68CA608B609160D960DFE71C1943467F
:101C60003B4206D10B68C91A8A68E418CB68D36076
:101C70009A6001222C4B22431B684A6081609C427F
:101C8000CCD32A4B281C1968FFF72CFFC6E7464621
:101C9000D0184068304209D14646E418D3689268AB
:101CA0002643D3609A604E600C51B7E74646264300
:101CB0004E600C51B2E7142B14D85B331A1C5E0033
:101CC000B9E7012492109440221C446822434260E8
:101CD0001A1CBEE72743D9609960CB608B604F60C8
:101CE0000C519BE7542B04D8230B6E331A1C5E0057
:101CF000A1E7AA225200934204D8E30B77331A1CBF
:101D00005E0098E70A4A934204D8A30C7C331A1C5D
:101D10005E0090E7FC267E228DE7C046500400203E
:101D200058040020FF0100005808002098080020F7
:101D300054050000F0B55F4656464D464446F0B4A3
:101D4000936885B0002B27D002908B8993460C1C9A
:101D50001A0729D50A69002A26D05A4612689246DF
:101D60009A072ED5B64B002600259846002D6BD03D
:101D7000E1692B1E434500D9B14B0298321C676ABA
:101D8000B847002800DC77E05B469B6836182D1AC0
:101D9000181A5B469860E9D1002005B03CBC90461B
:101DA0009946A246AB46F0BD0298211CFFF782FB84
:101DB000002800D03BE15A46A389126892469A0750
:101DC000D0D4DA075FD50023002799461D1C019364
:101DD000002F2ED0019B002B00D1C3E02E1EBE424F
:101DE00000D93E1C20682169B046A2686369884218
:101DF00004D9D2180392964200DDF1E09E4200DA47
:101E000094E00298E1694A46666AB0478046002835
:101E100032DD4346ED1A00D197E04346FF1A5B4698
:101E200042469B68C1449B1A5A469360B4D0002F27
:101E3000D0D153461B68994653465F6808239C4699
:101E40000023E2440193C3E753461E685D680823FC
:101E50009C46E2448AE77B4B281E984200D9181C16
:101E6000311C01F0DBF8031CE169734302983A1C52
:101E7000666AB047002825DCA2894023012013436D
:101E8000A381404289E700270025002D26D0A268C3
:101E9000904680229200134227D0464645455DD3A6
:101EA0009022D20013426AD12068321C391C00F003
:101EB0009BFC4246A368281C9B1AA36023689C468F
:101EC000664426605B469B683F182D1A181A5B46CD
:101ED000986000D160E7A389002DD8D152461768D9
:101EE000556808229446E244CFE720682369984267
:101EF00002D86669B542AED22E1E464500D9464686
:101F0000321C391C00F070FCA36822689B1B9219DC
:101F1000A3602260002B01D0301CD3E70298211C63
:101F2000FFF7D6FC0028A7D1301CCBE7321C49466E
:101F300000F05AFCA3689B1BA36023689C464346A1
:101F400066442660ED1A00D067E70298211CFFF76F
:101F5000BFFC002890D1002301935EE7A8462068CB
:101F60002E1CA2E748460A213A1C00F0BDFB0028BF
:101F700059D04B460130C51A012301932EE7216940
:101F80002268521A91464846626901305600B218DA
:101F9000D60FB61876104019321E824201D2061CA6
:101FA000021C02985B052DD5111C00F0FFF880463D
:101FB000031E3FD04A46216900F0D8FBA289224B7C
:101FC000134080221343A3814346404623614B467E
:101FD00048446661F61AA6602060A8462E1C64E795
:101FE000161C494600F000FCB4462368029863447E
:101FF0002360211CFFF76CFC002800D03CE7039B0A
:10200000984606E700F040FC80460028DCD1029D9F
:102010002169281CFFF7B6FD8022A38993431A1C6F
:102020000C232B6029E701237D1C0193D6E60120B8
:102030004042B2E6029A0C331360A2891DE7C04603
:1020400000FCFF7FFFFFFF7F7FFBFFFFF8B5B8239A
:102050004F4646469B00C0B4C718002F1CD0894687
:10206000804600267B68BC685D1E0DD4A389012BC9
:1020700007D90E22A35E013303D04046211CC84776
:1020800006436834013DF1D23F68002FEAD1301C8D
:102090000CBC90469946F8BD0026F8E7004870470A
:1020A0002C040020014B18687047C0464C040020E7
:1020B000F0B5474680B48B8990B09AB2940741D46A
:1020C0000C1C051C0E20095E00291CDB281C01AA23
:1020D00000F056FF002814DBF023029A1B02134085
:1020E0002F4A9F18794279418022884612029342F2
:1020F00032D080228026A38912011343A381F600E7
:102100000AE0A3899AB24026120622D58022120143
:102110001343A38100239846281C311C00F046F885
:10212000002830D01F4BEB638023A289206013432B
:10213000A381434620616661002B18D110B004BC16
:102140009046F0BD0B1C43330B600B6101234B61C8
:10215000F4E78026F600D9E7134BA26A9A42C8D169
:102160008026A389F6003343A381E664D4E70E23D7
:10217000E15E281C00F018FF0028DFD00123A289AF
:102180001343A381DAE7A3899A05D7D40222134324
:10219000A381231C43332360236101236361CDE7C3
:1021A00000E0FFFFFD180000DD2C0000F0B55F46E9
:1021B0004D4656464446F0B40D1C0B3583B0071C03
:1021C000162D2DD907239D4300D5C7E0A94200D97C
:1021D000C4E000F055FBF823FF339D4228D8E908FE
:1021E000CB4ECB00F318DC689C4200D1C1E1032345
:1021F00062689A43131CE268A168CA609160012278
:10220000E3185968381C0A435A6000F03BFB201C55
:10221000083003B03CBC90469946A246AB46F0BDA0
:10222000102900D99AE0381C00F02AFB1025D6E7C7
:10223000690A00D196E0042900D93CE138239C4684
:10224000A9098C4463465900B14E89007118CC68C5
:10225000A14215D0032362689A43131C521B0F2A14
:1022600000DD83E00320002A07DBC4E763688343C3
:102270005A1B0F2A7ADC002ABDDAE468A142F5D1A4
:10228000614601310091321C34690832944200D118
:1022900061E10323616899430B1C481B0F2800DD93
:1022A00048E1726132610028A9DA9A4A914200D964
:1022B0000DE10123C8088210934072681A43C300DD
:1022C000F3189868E360A0609C60131C7260C4609F
:1022D0000120009A9210904098424CD818420DD19B
:1022E00003220099400091430A1D0092184205D133
:1022F000009A4000043200921842F9D00323984615
:10230000009AD3009946B144CC4692466346DC68B5
:10231000A44507D121E1002A00DB33E1E468A445AC
:1023200000D11AE14246636893435A1B0F2AF2DD3B
:10233000012163190D436560E068A5680836E8600F
:1023400011438560F360B360381CDE609E605960A5
:102350009A5000F097FA201C08305AE70C2300200E
:102360003B6056E73F237E219C466DE701235B429D
:102370009846C44484E70323B46862689A4390464D
:10238000954203D8521B0F2A00DD86E0231C4344EC
:10239000614A0193614B93461B681268EB18013246
:1023A00000D15CE15E4A944663441B0B1B0300931F
:1023B000381C009900F050FC031C8146013360D0AA
:1023C000019B834200D9F8E0564B009A9A461B685D
:1023D0009C46534662441A60019B4B4500D14CE138
:1023E0005B461B68013300D15EE14B4601995B1AE5
:1023F000D21853461A6007234A46134000D113E10E
:1024000008218946D21A9144474AD21A009B381CA7
:102410004B441B051B0DD31A191C9B4600F01CFCDA
:10242000431C00D134E14B46C01A012358441843E1
:1024300053461B685B441A1C53461A604B46B360F4
:102440005860B44213D043460F2B00D8F7E0434600
:10245000072160680C3B8B43063901400520194376
:102460006160E118486088600F2B00D914E12F4BA0
:1024700019688A4200D91A602D4B19688A4200D91E
:102480001A600323B46862689A43131C5A1B9D4266
:1024900000D9B9E00F2A00DCB6E00123291C651938
:1024A000194313436160381CB5606B6000F0EAF9B2
:1024B000201C0830ADE6142973D9542900D9A8E0AE
:1024C0006E239C46290B8C4463465900BCE64A0A9D
:1024D000042A6CD88A093832101C520092009446A3
:1024E000B4446246032192688846624500D19EE06A
:1024F000414650688843834202D292689445F7D19E
:10250000D0687368E060A2608460D460E0E6C04692
:1025100050040020FF0100005C0800209808002003
:102520000F1000009C0800200810000094080020F4
:1025300090080020012163190D4301436560736118
:102540003361DA609A6059601850381C00F09AF9CB
:10255000201C08305DE67368BAE608239B46073BFB
:10256000DC449B46DA4443465246134200D0CDE653
:1025700031E0231C64698A1C08330092A34200D115
:1025800081E634E60122E3185968381C0A435A6090
:10259000E368A268D3609A6000F074F9201C0830E8
:1025A00037E65B239C468C44634659004CE6142A6C
:1025B00058D85B32101C520090E7B44200D060E75C
:1025C00002E7009B013B00934B461A68083B91468B
:1025D0009A4200D080E04346009A1342F1D17368DA
:1025E000834373604000984200D9C4E6002800D1BC
:1025F000C1E6184272D152460092009A400004325D
:1026000000921842F9D07BE6381C00F03BF900201C
:10261000FFE5AA235B00994217D8DD3B9C46E90BF6
:102620008C44634659000FE680225201EEE60123F6
:10263000801083407168101C0B43736062E70123B4
:102640004A464C465360002320E7264B994210D857
:102650007C239C46A90C8C4463465900F4E5103356
:102660000093A5E6542A23D80A0B6E32101C5200A0
:1026700034E77E23FC219C46E6E51B0500D0AFE64F
:10268000009BB1684344181C012303434B60EEE6F2
:10269000002301209B46CBE6211C381C0831FFF7A4
:1026A00071FA53461A68E2E65B464A461A60A2E6A9
:1026B000AA204000824204D8CA0B7732101C520074
:1026C0000CE70848824204D88A0C7C32101C520065
:1026D00004E7FC227E2001E7736883E753460093FA
:1026E0000EE6C0465405000070B5CCB2830737D063
:1026F000531E002A1FD00278A2421DD0032505E0F8
:10270000002B18D00278013BA24215D0013028429C
:10271000F6D1032B11D8002B0DD00278A2420BD09A
:10272000421CC31804E00132511E0978A14203D0B3
:10273000101E9842F7D1002070BDFF2529400D02E0
:1027400029430D04074E0D43026807496A4051189A
:1027500091433142DFD1043B0430032BF4D8DAE754
:10276000131CD6E780808080FFFEFEFE70B50F2A26
:1027700032D9041C0C430B1CA40731D1151C041CBA
:10278000103D2D0901352D0149191E6826605E682E
:1027900066609E68A660DE681033E6601034994279
:1027A000F3D10F2345191340032B1BD91C1F002302
:1027B000A4080134A400CE58EE500433A342FAD149
:1027C000ED18C91803231A4005D00023CC5CEC5443
:1027D00001339342FAD170BD051C002AF5D1FAE706
:1027E000051CF2E71A1CF8E770B588420BD98B1864
:1027F000984208D2991A531E002A03D0CA5CC254C8
:10280000013BFBD270BD0F2A09D8051C002AF9D064
:102810000023CC5CEC5401339342FAD1F2E7041C60
:102820000C430B1CA40726D1151C041C103D2D09BC
:1028300001352D0149191E6826605E6866609E6834
:10284000A660DE681033E66010349942F3D10F249D
:1028500045191440032C10D90023043CA40801346A
:10286000A400CE58EE500433A342FAD10324ED184D
:10287000C9182240CAE7051CCAE7221CC6E7C046A1
:102880007047C0467047C046F0B556464D46444670
:102890005F46F0B4804685B00E1E914600D1FCE044
:1028A000371C083FFFF7ECFF7B684D4603221C1CDA
:1028B0000B35BA469443162D00D974E0102210252A
:1028C000A94500D974E0944255DA39190191D549E6
:1028D00088680199884200D1EAE0486801210390A4
:1028E0000291011C012081438C4601998B46DC44F6
:1028F00061464968014260D1032103988C468843B0
:102900000019904200DBCCE00299194200D09BE014
:1029100061463B68FB1A9B465B688B43C11802917A
:10292000914255DB019A5F46D36892680837D360BD
:102930009A605B465A46DB689268D3609A60221FB1
:10294000242A00D92EE13B1C132A09D95B463168A1
:1029500099607168D9601B2A00D92DE110330836BF
:1029600032681A6072685A60B2689A605B463E1CB0
:10297000DA465B68029C621B0F2A52D8012152463C
:102980000B4023435360221C524453681943516047
:102990004046FFF777FF301C05B03CBC9046994697
:1029A000A246AB46F0BD043295432A1E00DB87E702
:1029B0000C23424600201360EEE70299194243D1EE
:1029C0003B68FB1A9B4659460323496899430B1CF5
:1029D0001B190193934237DB5B465A465F46926868
:1029E000DB680837D3609A60221F242A00D9DEE012
:1029F0003B1C132A09D95B46316899607168D9601C
:102A00001B2A00D9ECE01033083632681A6072686D
:102A10005A60B2689A605B463E1C5B68019CDA466D
:102A2000A9E701205146034049191D4353465D6003
:102A3000131C03438A184B605368083118435060D5
:102A40004046FFF79FF8A3E749464046FFF7AEFB35
:102A50008146002800D1F1E07B68011C0122181C8E
:102A6000904308393F18B94200D196E0221F242A2A
:102A700000D982E04B46132A65D8321C11681960D0
:102A80005168596092689A604046311CFFF77AF8A5
:102A90004046FFF7F7FE48467EE7111CFFF786FB2E
:102AA0007AE70199041CCA688968CA60916062E784
:102AB0004168032081438446281C09191030019085
:102AC00081424ADADB07BFD460463B68FB1A9B466B
:102AD0005B6883430198C9180291884200DD77E75B
:102AE0005B465A465F469268DB680837D3609A6057
:102AF000221F242A00D98FE03B1C132A09D95B46E8
:102B0000316899607168D9601B2A00D98CE0103354
:102B1000083632681A6072685A60B2689A605B461A
:102B20005919404B40469960029B5A1B01231A4396
:102B30004A605A46526813401D435B465D60FFF78A
:102B4000A1FE381C28E731681960716859601B2A9A
:102B500018D8321C0833083290E7324B7A199A6041
:102B60000123491B194351607A68404613401D43B5
:102B70007D60FFF787FE301C0EE74846311CFFF7EB
:102B800033FE81E74B46B1689960F168D960242A29
:102B90001CD0321C1033103270E74A6803218A437C
:102BA000A418E8E6381C311CFFF71EFEDEE6381CD0
:102BB000311CFFF719FE2EE75B46B1681961F16819
:102BC0005961242A16D018331036C9E64B463269AB
:102BD00049461A61321C70691833183248614DE752
:102BE0005B46B1681961F1685961242A0BD018332A
:102BF00010360AE75B4632699A615A46716920339A
:102C0000D1611836ACE65B4632699A615A46716901
:102C10002033D1611836F8E6381C311CFFF7E4FD8B
:102C20007DE7C046500400205B46B1681961F16839
:102C30005961242A07D0183310366AE74046FFF757
:102C400021FE0020A8E65B4632699A615A46716906
:102C50002033D16118365CE738B50023064C051CDB
:102C6000081C236000F042FD431C00D038BD2368DF
:102C7000002BFBD02B60F9E7C808002038B50C1CEE
:102C80000E25495F00F0B6F9002803DB236D1B1801
:102C9000236538BDA289024B1340A381F9E7C046E2
:102CA000FFEFFFFFF8B5171C8A89051C0C1C1E1CC2
:102CB000D30506D50E23C95E0022022300F086F953
:102CC000A289054B281C1340A3813A1C0E23E15E08
:102CD000331C00F0E9F8F8BDFFEFFFFF38B50C1C1E
:102CE0000E25495F00F072F9431C06D08022A389AB
:102CF00052011343A381206538BDA289014B1340C3
:102D0000A381F9E7FFEFFFFF08B50E23C95E00F0CE
:102D1000DFF808BD10B5830727D00378002B26D035
:102D2000031C032102E01A78002A1CD001330B4255
:102D3000F9D119680F4A104C8A188A4322420FD1E0
:102D4000043319680B4A8A188A43224208D1043393
:102D50001968084A8A188A432242F1D000E00133F8
:102D60001A78002AFBD1181A10BD031CE1E70020D5
:102D7000FAE7C046FFFEFEFE8080808070B5061C2C
:102D80000D1C141C002802D0836B002B4AD0A28992
:102D9000A36991B2A3600B073AD52369002B37D002
:102DA000FF20054080208001014215D02268616922
:102DB000D31A8B421BDA0133A1680139A160511C7F
:102DC0002160157062699A421AD0A389281CDB071A
:102DD00001D50A2D14D070BD0243616EA281144A40
:102DE0000A40626661692268D31A8B42E3DB301CB9
:102DF000211CFEF76DFD002817D122680123DBE7B7
:102E0000301C211CFEF764FD00280ED1281CE2E7CF
:102E1000301C211CFEF74EFB002806D1A289236935
:102E200091B2BDE7FEF7EAFDB1E701204042D2E7EB
:102E3000FFDFFFFFF0B5474680B41E1C86B0051CBF
:102E40000C1C171C104B002913D01B689846FFF769
:102E500025F90096031C211C281C3A1CC047431C62
:102E600003D1002333608A332B6006B004BC904644
:102E7000F0BD1C68FFF712F90096031C03A9281C7B
:102E80000022A047EBE7C04660080020002904D0DC
:102E9000FF2A04D801200A7070470020FCE78A232B
:102EA000036001204042F7E738B5051C0020074CBD
:102EB0002060081C111C1A1CFDF792F9431C00D05D
:102EC00038BD2368002BFBD02B60F9E7C808002031
:102ED00038B50023064C051C081C236000F0DEFBFF
:102EE000431C00D038BD2368002BFBD02B60F9E7D2
:102EF000C808002070B5002909D00C1C051E02D09E
:102F0000836B002B31D00C22A35E002B01D100205B
:102F100070BD281C211CFEF72FFCE36A061C002B49
:102F200004D0281CE1699847002821DBA3891B06EF
:102F300021D4216B002908D0231C4033994202D0B0
:102F4000281CFEF71FFE00232363616C002904D0B8
:102F5000281CFEF717FE00236364FEF757FD0023CD
:102F6000A381FEF755FD301CD2E7FEF747FDCAE707
:102F700001267642DAE7281C2169FEF703FED8E72E
:102F800038B50023074C051C081C111C236000F0F9
:102F90008DFB431C00D038BD2368002BFBD02B6079
:102FA000F9E7C046C808002038B50023064C051CC8
:102FB000081C236000F082FB431C00D038BD23684E
:102FC000002BFBD02B60F9E7C808002038B5051CA2
:102FD0000020074C2060081C111C1A1C00F076FB16
:102FE000431C00D038BD2368002BFBD02B60F9E7D1
:102FF000C808002038B5051C0020074C2060081CBC
:10300000111C1A1C00F06AFB431C00D038BD236859
:10301000002BFBD02B60F9E7C808002003460B43C8
:103020007FD4002243088B4274D303098B425FD3C1
:10303000030A8B4244D3030B8B4228D3030C8B42ED
:103040000DD3FF22090212BA030C8B4202D31212D3
:10305000090265D0030B8B4219D300E0090AC30BA8
:103060008B4201D3CB03C01A5241830B8B4201D355
:103070008B03C01A5241430B8B4201D34B03C01A3E
:103080005241030B8B4201D30B03C01A5241C30AB6
:103090008B4201D3CB02C01A5241830A8B4201D327
:1030A0008B02C01A5241430A8B4201D34B02C01A11
:1030B0005241030A8B4201D30B02C01A5241CDD2B6
:1030C000C3098B4201D3CB01C01A524183098B4201
:1030D00001D38B01C01A524143098B4201D34B01EA
:1030E000C01A524103098B4201D30B01C01A52414D
:1030F000C3088B4201D3CB00C01A524183088B42D4
:1031000001D38B00C01A524143088B4201D34B00BC
:10311000C01A5241411A00D201465241104670472E
:103120005DE0CA0F00D04942031000D34042534033
:1031300000229C4603098B422DD3030A8B4212D3F3
:10314000FC22890112BA030A8B420CD38901921125
:103150008B4208D3890192118B4204D389013AD062
:10316000921100E08909C3098B4201D3CB01C01A37
:10317000524183098B4201D38B01C01A524143094A
:103180008B4201D34B01C01A524103098B4201D338
:103190000B01C01A5241C3088B4201D3CB00C01AA5
:1031A000524183088B4201D38B00C01A5241D9D2BD
:1031B00043088B4201D34B00C01A5241411A00D23E
:1031C0000146634652415B10104601D34042002B3A
:1031D00000D54942704763465B1000D3404201B5B9
:1031E000002000F00BF802BD0029F8D003B5FFF76E
:1031F00015FF0EBC4243891A1847C0467047C046A7
:10320000002B11D1002A0FD1002900D1002802D0B3
:103210000021C943081C07B4024802A140180290CB
:1032200003BDC046D9FFFFFF03B4684601B502984D
:1032300000F022F8019B9E4602B00CBC7047C046CD
:10324000F0B583B0161C1F1C0090019100F058F8D7
:10325000041C0D1C221C2B1C301C391C00F026F8F1
:10326000009A019B121A8B410899201C0A604B603E
:10327000291C03B0F0BDC046F0B5141C83B01D1C62
:103280000090019100F034F9221C2B1C061C0F1C2D
:1032900000F00CF8009A019B121A8B410899301C1F
:1032A0000A604B60391C03B0F0BDC046F0B54F4614
:1032B000464605042D0C2C1CC0B41704160C3F0CFC
:1032C0009946030C7C4375435F4373437D19260C79
:1032D000AD199C46AF4203D980235B029846C44493
:1032E0004B465143434324042E0C240C2D046644C6
:1032F0002C1959188919201C0CBC90469946F0BD10
:10330000F0B544465F4656464D46F0B41C1C85B0A9
:10331000002900DAA9E00F1C0021061C8846101CB9
:10332000191C002C00DA97E0341C3D1C82468946AB
:10333000B94273D870D04946504600F085F98346AB
:10334000391C301C00F080F95B46181A031C8346B8
:10335000203B9C4600D59CE0002300225146009271
:10336000019363469940019151468140019B009130
:10337000BB4200D983E000D17EE0009A019B341C5F
:103380003D1CA41A9D416346002B00DA9AE00026FA
:1033900000270296039701369E4003960126864039
:1033A0000296002800D171E00099019AD30799464E
:1033B0004B464E081E435708002301220CE0AF4243
:1033C00001D1A6420AD8A41BBD4124196D41013880
:1033D000A4185D41002806D0AF42F0D90138241965
:1033E0006D410028F8D12022029E039F5B46524285
:1033F00036196F4199185AD4281CC8402C1C5B46BA
:10340000DC40002968DB041C8C40231C59468840A2
:10341000021CB61A9F4103E0B0428CD90026002757
:1034200041464B1E9941002300910193009A019B54
:10343000002554429D41331C6340181C3B1C6B40CB
:10344000191C009B019CC018614105B03CBC904612
:103450009946A246AB46F0BD4346DB430C1C98465A
:10346000131C00215842A1415EE7002746428F41CC
:1034700001214942884652E7B14200D87DE7002643
:10348000002702960397002800D08DE7029E039F35
:10349000C6E720215346091ACB400022191C0023FD
:1034A000009201934B4683400B4301935CE75A46DD
:1034B00020239B1A2A1C9A40201C131C5A46D040D9
:1034C00018439BE720260027331A0026029603970D
:1034D0000127DF40039761E75B4620215D46C91A5B
:1034E000031CAC40CB40191C231C0B438EE7C04689
:1034F000F0B545464E465746E0B4041C82B00D1C5C
:10350000914698468B4262D85FD04146484600F0CB
:103510009BF8291C061C201C00F096F82023311A69
:103520005B428A46C81865D44B4683401F1C4B46F5
:103530008B401E1CAF4258D855D0A41BBD4100285B
:1035400000DA77E0002200230092019301328240EA
:10355000019201238B40009300293CD0FB07984641
:10356000404672087B080243012600270CE0AB426C
:1035700001D1A2420AD8A41A9D4124196D410139F2
:10358000A4197D41002906D0AB42F0D90139241994
:103590006D410029F8D120220098019953465242EA
:1035A000001969419E183AD42F1CF7405346DD405C
:1035B000002E29DB3C1CB440231C5446A7403A1C77
:1035C000801A99410090019105E082429DD9002323
:1035D0000024009301940098019902B01CBC90460D
:1035E0009946A246F0BDA342A7D90022002300922B
:1035F0000193B1E720224B46521AD3401A1C43468E
:103600008B401F1C174392E7534620245646E41A6A
:103610003B1CB540E3401C1C2B1C2343CDE752460A
:1036200020239B1A2A1C9A40271C131C5246D74061
:103630001F43BBE720230022581A00230092019366
:103640000132C240019284E710B5002903D100F095
:1036500007F8203002E0081C00F002F810BDC04658
:103660001C2101231B04984201D3000C10391B0AB2
:10367000984201D3000A08391B09984201D3000976
:10368000043902A2105C40187047C04604030202CD
:10369000010101010000000000000000582201208B
:1036A000014B40421A607047C80800205822012090
:1036B000014B40421A607047C80800205822024B54
:1036C00000201A607047C046C80800205822012018
:1036D000014B40421A607047C80800205822012060
:1036E000014B40421A607047C8080020044A136822
:1036F000002B03D018181060181C7047014BF9E715
:10370000C4080020D0080020FEE7C046F8B5C04637
:10371000F8BC08BC9E467047F8B5C046F8BC08BC6B
:103720009E4670476B6A6E6B20256420696A6F0A3B
:103730000D0000004300000000000020460D0000C6
:10374000DC0D0000DC0D0000CE0D0000DC0D0000E3
:10375000DC0D0000DC0D0000DC0D0000DC0D0000C5
:10376000DC0D00000C0C0000240C0000DC0D00003F
:1037700068090000540D0000DC0D0000760900000F
:103780008409000084090000840900008409000005
:1037900084090000840900008409000084090000F5
:1037A00084090000DC0D0000DC0D0000DC0D0000D1
:1037B000DC0D0000DC0D0000DC0D0000DC0D000065
:1037C000DC0D0000DC0D0000DC0D0000B009000085
:1037D000DC0D0000DC0D0000DC0D0000DC0D000045
:1037E000DC0D0000DC0D0000DC0D0000DC0D000035
:1037F000DC0D0000DC0D00003A0B0000DC0D0000C9
:10380000DC0D0000DC0D0000DC0D0000DC0D000014
:10381000840B0000DC0D0000DC0D0000C60B000076
:10382000DC0D0000DC0D0000DC0D0000DC0D0000F4
:10383000DC0D0000DC0D0000DC0D0000DC0D0000E4
:10384000DC0D0000DC0D0000180B0000A60D0000D0
:10385000DC0D0000DC0D0000DC0D0000980D000008
:10386000A60D0000DC0D0000DC0D0000B20B000016
:10387000DC0D0000240D0000D20C0000FA0C00004A
:103880002C0C0000DC0D00003A0C0000DC0D0000E8
:10389000800C0000DC0D0000DC0D0000A60C000018
:1038A0003030303030303030303030303030303018
:1038B0003031323334353637383941424344454666
:1038C0000000000030313233343536373839616228
:1038D0006364656600000000286E756C6C2900004A
:1038E00020202020202020202020202020202020D8
:1038F0001000000000000000017A5200027C0E015E
:103900001B0C0D001000000018000000000000005B
:0C39100084000000000000000000000027
:08391C0058C8FF7F0100000004
:1039240000000000EC02002054030020BC0300202F
:103934000000000000000000000000000000000083
:103944000000000000000000000000000000000073
:1039540000000000343700000000000000000000F8
:103964000000000000000000000000000000000053
:103974000000000000000000000000000000000043
:103984000000000000000000000000000000000033
:103994000000000000000000000000000000000023
:1039A4000000000000000000000000000000000013
:1039B4000000000000000000000000000000000003
:1039C40000000000000000000100000000000000F2
:1039D4000E33CDAB34126DE6ECDE05000B000000B7
:1039E40000000000000000000000000000000000D3
:1039F40000000000000000000000000000000000C3
:103A040000000000000000000000000000000000B2
:103A140000000000000000000000000000000000A2
:103D4400000000000000000000000020415343492F
:103D54004900000000000000000000000000000016
:103D6400000000000000000000000000010000004E
:103D74000000000000000000500400205004002057
:103D8400580400205804002060040020600400202F
:103D940068040020680400207004002070040020DF
:103DA400780400207804002080040020800400208F
:103DB400880400208804002090040020900400203F
:103DC4009804002098040020A0040020A0040020EF
:103DD400A8040020A8040020B0040020B00400209F
:103DE400B8040020B8040020C0040020C00400204F
:103DF400C8040020C8040020D0040020D0040020FF
:103E0400D8040020D8040020E0040020E0040020AE
:103E1400E8040020E8040020F0040020F00400205E
:103E2400F8040020F804002000050020000500200C
:103E340008050020080500201005002010050020BA
:103E4400180500201805002020050020200500206A
:103E5400280500202805002030050020300500201A
:103E640038050020380500204005002040050020CA
:103E7400480500204805002050050020500500207A
:103E8400580500205805002060050020600500202A
:103E940068050020680500207005002070050020DA
:103EA400780500207805002080050020800500208A
:103EB400880500208805002090050020900500203A
:103EC4009805002098050020A0050020A0050020EA
:103ED400A8050020A8050020B0050020B00500209A
:103EE400B8050020B8050020C0050020C00500204A
:103EF400C8050020C8050020D0050020D0050020FA
:103F0400D8050020D8050020E0050020E0050020A9
:103F1400E8050020E8050020F0050020F005002059
:103F2400F8050020F8050020000600200006002007
:103F340008060020080600201006002010060020B5
:103F44001806002018060020200600202006002065
:103F54002806002028060020300600203006002015
:103F640038060020380600204006002040060020C5
:103F74004806002048060020500600205006002075
:103F84005806002058060020600600206006002025
:103F940068060020680600207006002070060020D5
:103FA4007806002078060020800600208006002085
:103FB4008806002088060020900600209006002035
:103FC4009806002098060020A0060020A0060020E5
:103FD400A8060020A8060020B0060020B006002095
:103FE400B8060020B8060020C0060020C006002045
:103FF400C8060020C8060020D0060020D0060020F5
:10400400D8060020D8060020E0060020E0060020A4
:10401400E8060020E8060020F0060020F006002054
:10402400F8060020F8060020000700200007002002
:1040340008070020080700201007002010070020B0
:104044001807002018070020200700202007002060
:104054002807002028070020300700203007002010
:1040640038070020380700204007002040070020C0
:104074004807002048070020500700205007002070
:104084005807002058070020600700206007002020
:1040940068070020680700207007002070070020D0
:1040A4007807002078070020800700208007002080
:1040B4008807002088070020900700209007002030
:1040C4009807002098070020A0070020A0070020E0
:1040D400A8070020A8070020B0070020B007002090
:1040E400B8070020B8070020C0070020C007002040
:1040F400C8070020C8070020D0070020D0070020F0
:10410400D8070020D8070020E0070020E00700209F
:10411400E8070020E8070020F0070020F00700204F
:10412400F8070020F80700200008002000080020FD
:1041340008080020080800201008002010080020AB
:10414400180800201808002020080020200800205B
:10415400280800202808002030080020300800200B
:1041640038080020380800204008002040080020BB
:10417400480800204808002000000200FFFFFFFF5D
:104184008D2E000059160000390100000D010000B9
:044194000000000027
:04000003000005D91B
:00000001FF
